:200000001DC037C036C035C034C0F1C032C031C030C02FC02EC02DC02CC02BC02AC001031A
:200020000000040000000000380000000000370002020202020201020408102011241FBEF0
:20004000CFE5D2E0DEBFCDBF10E0A0E6B0E0E4EFF2E002C005900D92AA36B107D9F720E008
:20006000AAE6B0E001C01D92A337B207E1F709D13FC1C6CF3FB7F89480916F009091700083
:20008000A0917100B091720022B708B601FE05C02F3F19F00196A11DB11D3FBFBA2FA92F57
:2000A000982F8827BC01CD01620F711D811D911D43E0660F771F881F991F4A95D1F7089523
:2000C000CF92DF92EF92FF92CF93DF936B017C01D1DFEB01C114D104E104F10441F412C058
:2000E00081E0C81AD108E108F108C851DC4FC2DF6C1B7D0B683E734068F3C114D104E104CB
:20010000F10471F7DF91CF91FF90EF90DF90CF90089590E0FC01EA5CFF4F2491805D9F4FB8
:20012000FC018491882399F090E0880F991FFC01E65DFF4FA591B491FC01EC5DFF4F859107
:2001400094918FB7F894EC91E22BEC938FBF089587FF09C08F7771F1813071F1823071F1D6
:20016000833071F18FEF90E0FC01E25EFF4F3491FC01EA5CFF4F2491FC01E05DFF4FE491E9
:20018000EE23B9F0332329F03130E1F48AB58F778ABDF0E0EE0FFF1FEC5DFF4FA591B49177
:2001A0008FB7611120C0F894EC9120952E232C938FBF089585E0D7CF82E0D5CF84E0D3CFD7
:2001C00083E0D1CF323019F48AB58F7DE1CF333021F480B78F7D80BFDCCF3430D1F68CB5A1
:2001E0008F7D8CBDD6CFF894EC912E2BE0CF1F920F920FB60F9211242F933F938F939F931F
:20020000AF93BF9380916B0090916C00A0916D00B0916E0030916A0026E0230F2D3768F1D4
:2002200029E8230F0396A11DB11D20936A0080936B0090936C00A0936D00B0936E008091CA
:200240006F0090917000A0917100B09172000196A11DB11D80936F0090937000A09371006D
:20026000B0937200BF91AF919F918F913F912F910F900FBE0F901F9018950296A11DB11DCE
:20028000D4CF83E08ABD83BF789489B7826089BF80E48CBD8FEF8DBD87EC80BF86E886B985
:2002A00080E037DF81E035DF82E033DF83E031DF84E02FDFC0E6D0E0F880229608E010E09C
:2002C00061E08F2D45DF64E670E080E090E0F8DE60E08F2D3DDF64E670E080E090E0F0DE6D
:2002E0000150110969F780E0CA36D80729F7E2CFF894FFCF00000100040002000300FFFFC1
:20030000FFFFFFFFFFFFFFFFFFFFFFFFFFFFFFFFFFFFFFFFFFFFFFFFFFFFFFFFFFFFFFFFFD
:20032000FFFFFFFFFFFFFFFFFFFFFFFFFFFFFFFFFFFFFFFFFFFFFFFFFFFFFFFFFFFFFFFFDD
:20034000FFFFFFFFFFFFFFFFFFFFFFFFFFFFFFFFFFFFFFFFFFFFFFFFFFFFFFFFFFFFFFFFBD
:20036000FFFFFFFFFFFFFFFFFFFFFFFFFFFFFFFFFFFFFFFFFFFFFFFFFFFFFFFFFFFFFFFF9D
:00000001FF
