:200000001DC037C036C035C034C022C132C031C030C02FC02EC02DC02CC02BC02AC00000EC
:200020000000370000000000380002020202020201020408102001030000040011241FBEEC
:20004000CFE5D2E0DEBFCDBF10E0A0E6B0E0E6E1F4E002C005900D92A437B107D9F720E017
:20006000A4E7B0E001C01D92AD37B207E1F73AD1D0C1C6CF88EE93E000000197E9F7089551
:2000800090E0FC01EA5CFF4F3491FC01E05DFF4F2491FC01E65DFF4FE491EE23B9F033234A
:2000A00029F03130A1F48AB58F778ABDF0E0EE0FFF1FEC5DFF4FA591B4918FB7611118C018
:2000C000F894EC9120952E232C938FBF0895323019F48AB58F7DE9CF333021F480B78F7D3A
:2000E00080BFE4CF343011F78CB58F7D8CBDDECFF894EC912E2BE8CFCF92DF92EF92FF9262
:200100000F931F93CF93DF936C017B0160E080E0B7DF60E082E0B4DF60E084E0B1DFAADFA6
:20012000C8E0D0E000E810E061E0C60180239123892B09F460E080E0A3DF61E082E0A0DF3B
:2001400099DF60E082E09CDF95DF15950795219759F7C8E0D0E000E810E061E0C70180236C
:200160009123892B09F460E080E08ADF61E082E087DF80DF60E082E083DF7CDF1595079504
:20018000219759F761E084E07BDF74DF61E080E077DF70DF61E082E0DF91CF911F910F91FC
:2001A000FF90EF90DF90CF906BCFCF93DF93C4E6D0E060DF2197E9F770E060E08FEF90E0A6
:2001C0009BDF61E070E08CE090E096DF70E060E089E090E091DF67E070E08AE090E08CDF0E
:2001E00067E070E08BE090E0DF91CF9185CFCF93DF9390E0FC01E05DFF4F2491865D9F4F17
:20020000FC0184918823D1F090E0880F991FFC01E25EFF4FA591B491FC01EC5DFF4FC591B1
:20022000D491623071F49FB7F8943C91822F809583238C93E8812E2B28839FBFDF91CF918D
:2002400008958FB7F894EC912E2B2C938FBFF6CF1F920F920FB60F9211242F933F938F93E4
:200260009F93AF93BF938091790090917A00A0917B00B0917C003091780026E0230F2D3755
:2002800068F129E8230F0396A11DB11D209378008093790090937A00A0937B00B0937C00DC
:2002A0008091740090917500A0917600B09177000196A11DB11D8093740090937500A0934F
:2002C0007600B0937700BF91AF919F918F913F912F910F900FBE0F901F9018950296A11DC1
:2002E000B11DD4CFC3E0CABDC3BF789489B7826089BF80E48CBD8FEF8DBD87EC80BFD6E886
:20030000D6B962E083E073DF62E081E070DF61E084E06DDF61E080E06ADF61E082E067DFA1
:2003200060E084E0ADDE60E080E0AADE60E082E0A7DE3BDFC7B9D6B944E6E42EF12C0AE0D3
:2003400010E056E4C52ED12CD0E0C0E0CE01B70139D05C01660F771FFB01E05AFF4F6081D6
:20036000718181E090E0C8DEC501B8012BD0FB01EE0FFF1FE05AFF4F6081718183E090E055
:20038000BBDECE01B8011ED0FC01EE0FFF1FE05AFF4F6081718182E090E0AEDE34E6A32E92
:2003A000B12C68DE81E0A81AB108D9F7CE01B60109D0892B09F4F9DE2196C83E83E0D80788
:2003C00029F6C2CF97FB072E16F4009406D077FD08D00BD007FC05D03EF4909581959F4FD8
:2003E0000895709561957F4F0895AA1BBB1B51E107C0AA1FBB1FA617B70710F0A61BB70BC5
:20040000881F991F5A95A9F780959095BC01CD010895F894FFCF7E0030006D00790033006B
:200420005B005F0070007F007B00FFFFFFFFFFFFFFFFFFFFFFFFFFFFFFFFFFFFFFFFFFFFAE
:20044000FFFFFFFFFFFFFFFFFFFFFFFFFFFFFFFFFFFFFFFFFFFFFFFFFFFFFFFFFFFFFFFFBC
:20046000FFFFFFFFFFFFFFFFFFFFFFFFFFFFFFFFFFFFFFFFFFFFFFFFFFFFFFFFFFFFFFFF9C
:20048000FFFFFFFFFFFFFFFFFFFFFFFFFFFFFFFFFFFFFFFFFFFFFFFFFFFFFFFFFFFFFFFF7C
:2004A000FFFFFFFFFFFFFFFFFFFFFFFFFFFFFFFFFFFFFFFFFFFFFFFFFFFFFFFFFFFFFFFF5C
:00000001FF
